:020000040000FA
:1000000088100120FD600100CFF90200E9600100C5
:10001000E9600100E9600100E9600100E9600100B8
:1000200000000000000000000000000091620100DC
:10003000E960010000000000F9610100E9600100D1
:10004000C5640100C5640100C5640100C564010008
:10005000C5640100C5640100C5640100C5640100F8
:10006000C5640100C5640100C5640100C5640100E8
:10007000C5640100C5640100C5640100C5640100D8
:10025000C5640100BB1D0300C5640100C564010045
:10026000C5640100C5640100EB1D0300C564010005
:10027000C5640100C5640100C5640100C5640100D6
:10028000C5640100C5640100C5640100C5640100C6
:10029000C5640100C5640100C5640100C5640100B6
:1002A000C5640100C5640100C5640100C5640100A6
:1002B000C5640100C5640100C5640100C564010096
:1002C000C5640100C5640100C5640100C564010086
:1002D000C5640100C5640100C5640100C564010076
:1002E000C5640100C5640100C5640100C564010066
:1002F000C5640100C5640100C5640100C564010056
:10030000C5640100C5640100C5640100C564010045
:10031000C5640100C5640100C5640100C564010035
:10032000C5640100C5640100C5640100C564010025
:10033000C5640100C5640100C5640100C564010015
:10034000C5640100C5640100C5640100C564010005
:10035000C5640100C5640100C5640100C5640100F5
:10036000C5640100C5640100C5640100C5640100E5
:10037000C5640100C5640100C5640100C5640100D5
:10038000C5640100C5640100C5640100C5640100C5
:10039000C5640100C5640100C5640100C5640100B5
:1003A000C5640100C5640100C5640100C5640100A5
:1003B000C5640100C5640100C5640100C564010095
:1003C000C5640100C5640100C5640100C564010085
:1003D000C5640100D51D0300C5640100C5640100AA
:1003E000C5640100C5640100C5640100C564010065
:1003F000C5640100C5640100C5640100C564010055
:10040000C5640100C5640100C5640100C564010044
:10041000C5640100C5640100C5640100C564010034
:10042000C5640100C5640100C5640100C564010024
:10043000C5640100C5640100C5640100C564010014
:10044000C5640100C5640100C5640100C564010004
:10045000C5640100C5640100C5640100C5640100F4
:10046000C5640100C5640100C5640100C5640100E4
:0C047000C5640100C5640100C564010002
:10048000064A074BDB7802604FF43472C3710023D5
:100490008280082203728271704700BFEB0701005F
:1004A000180F0020064A074B1B7902604FF4B47204
:1004B000C371FF238280082203728271704700BFDC
:1004C0009B030100180F00202DE9F743C41D0028ED
:1004D000064624F007040CBF0020204600F034FD3F
:1004E000071E04DA6FF00B0003B0BDE8F0830EB90D
:1004F000FC42F7D4374D6989288903316B7B03307F
:100500002A7B89B280B20CF073FF011EEADB3C4407
:10051000AB78EA78002E04F10304134408BF0020EE
:1005200024F0030403FB01F118BF204600F096FEFF
:1005300020440EB90028D5DB2B790446B3B1697D80
:1005400019446B791944FF29CCDC0330002E2A8A28
:10055000C9B220F003070CBF0020384600F0EEFEC1
:10056000041EBFDB3C440EB9002CBBDB012000F0B5
:10057000E1FCC8B1A97BB9B195F82C300734002B48
:1005800024F0070715BF402325234FF4817228224A
:10059000002E14BF3846002002F0AEFC041EA1DB82
:1005A0003C440EB9002C9DDBAB7CE3B12B799BB1B5
:1005B0000734002EA97C24F007070CBF0020384622
:1005C00005F0CEF9041E8DDB3C4466B9002C0ADA36
:1005D00088E700BF180F0020012000F0ABFC10B12D
:1005E000AB7B002BE4D1744B1B6893B1A97981B12B
:1005F0000334002EEA7C24F003070CBF00203846A9
:100600009847041EFFF66EAF3C4416B9002CFFF667
:1006100069AF6A4B1B688BB1297D79B10334002E19
:1006200024F003070CBF002038469847041EFFF64D
:1006300059AF3C4416B9002CFFF654AF604BD3F8C9
:100640000080B8F1000F16D0697DA1B10334002EEF
:100650002B7E24F0030708BF0020009318BF384604
:10066000EB7DAA7DC047041EFFF63CAF3C4416B9A3
:10067000002CFFF637AF072000F05CFC98B1A97999
:1006800089B10334002EAA7E24F003070CBF00209A
:10069000384600F041FF041EFFF624AF3C4416B973
:1006A000002CFFF61FAFB6FA86F895F825004FEA42
:1006B0005818A0B1E71CEB7F297F27F007071944E2
:1006C000434647F00407C9B23A4600F067FF041EEC
:1006D000FFF608AF3C4416B9002CFFF603AF95F8BF
:1006E0002610002959D00734002E2A8D24F0070740
:1006F0000CBF002038460CF090FE041EFFF6F2AE50
:100700003C4416B9002CFFF6EDAE1EB1298D3846DB
:1007100009F074F895F82010002940D095F824309D
:10072000002B3CD06A8C0734002E02F1240224F006
:1007300007090CBF0020484692B20CF06EFE071E5F
:10074000FFF6D0AE4F4416B9002FFFF6CBAE0337FD
:10075000AB7F297F27F0070795F82400194443460B
:1007600047F00407C9B23A4600F00AFF041EFFF63C
:10077000B9AE3C4416B9002CFFF6B4AE3EB16A8C5B
:10078000484695F82010083292B209F03DF82B6BDC
:100790005BB176B12C630020A6E60F46B5E7002ECC
:1007A000F5D0002211461046EFE7002EF3D1204687
:1007B0009AE62834FBD595E6A4000020AC00002082
:1007C000A80000201FB572B6194B5D6BE5B9BFF3E9
:1007D0004F8F1849184BCA6802F4E0621343CB608C
:1007E000BFF34F8F00BFFDE7B4FBF6F4D3B2013285
:1007F000002CF9D103F110026A4402F80C4C0A22D1
:1008000033B901A8A847E2E7044600220A26EDE72B
:10081000013BDBB203F110040DEB0406B0FBF2F474
:1008200002FB1400303006F80C0C2046E8E700BF4D
:10083000180F002000ED00E00400FA0513B5114C7C
:100840006846637B8DF80130237B8DF80030638927
:10085000ADF804302389ADF8023003F037F918B150
:10086000DB210320FFF7AEFF207E03F05FF908B124
:10087000DE21F6E7E07D03F053F908B1DF21F0E770
:1008800002B010BD180F002070B50546002850D0EA
:100890000BF042F818B94FF0FF34204670BD09F054
:1008A000FFFBB0F5FA7FF6D8234C03262348656397
:1008B000002500F0B9FA2A222946A01C84F83850F5
:1008C000257084F82C50256310F0C2FC40F201130F
:1008D00001212A46A67363801B23084621712381C8
:1008E000638140F20323A176A3811F2323824FF467
:1008F0000273638244F60113E382F7236384FB23CC
:10090000238502F057FB20B140F24F313046FFF70C
:1009100059FF02F06BFB044610B140F25231F5E78B
:10092000EFF3108572B600F063FE002DB5D162B60C
:10093000B3E76FF01504B0E7180F00203D08000082
:1009400038B51446002840F0D080694D95F838300D
:10095000032B00F0C780B9B112B96FF0150038BD94
:100960000139162900F2C180DFE801F00C1D2035A5
:100970005F68863B6B6E804147555A8C8F9DA0A364
:1009800095A6AA001378AB700020FFF79DFD002804
:10099000B7BF012302236FF00B0085F83830A8BFE2
:1009A00085F83830DBE71378EB70EDE71379002B2F
:1009B000D3D05379002BD0D01288FB2ACDD81A2A55
:1009C0006388CAD91B3BE02BC7D82368A288AB60D9
:1009D000484B9A80D8E713786A799342BDD32B713C
:1009E000D2E713782A799342B7D86B71CCE71378A2
:1009F0002A799342B1D86B75C6E71378002BACD037
:100A00005378013BDBB2F82BA7D813889278EB829E
:100A1000394B9A70B8E71078687607F08BFBB3E72C
:100A20001378002B99D0AB76AEE7012000F082FA64
:100A3000237808B1012B90D9AB73A5E713882B82DB
:100A4000A2E71378AB719FE7072000F073FA10B9A3
:100A50002378012B81D9072000F06CFA18B1237894
:100A6000002B3FF47AAF2378EB748DE71378082BD3
:100A70003FF673AF2B7587E71388FF2B3FF66DAFFB
:100A8000AB7481E71378EB767EE713780E2B3FF695
:100A900064AF2B7778E72368184A2B62636853604A
:100AA0002389138170E713786B776DE71378EB7701
:100AB0006AE71378AB7767E7137885F82A3063E73E
:100AC00092786178207802F075FA00287FF447AFB9
:100AD0006378012B7FF658AF08F088FE00287FF47A
:100AE00053AF3AE74FF0FF3039E76FF02C0036E7AD
:100AF000180F0020200F00202E0F0020380F00209C
:100B0000F8B50D46064630B329B311F0070422D1DB
:100B1000124F97F83830012B02D16FF00B00F8BD5F
:100B2000032B02D14FF0FF30F9E700F0ADF80028B9
:100B3000F8D02846FFF7C8FC0028EEDB0FF022FFB4
:100B40003046396B03F074F8FFF778FE0323204634
:100B500087F83830E3E76FF01500E0E7180F002062
:100B600010B5074C94F83830032B03D103F07CF810
:100B700003F0BCFF0CF078FD002084F8380010BDB5
:100B8000180F002050B1074B03F1140253F8041B57
:100B9000934240F8041BF9D1002070476FF0150014
:100BA000704700BF53E90300074B10B593F8384076
:100BB0003CB903F007F80320044900F0B3F92046DC
:100BC00010BD4FF0FF30FBE7180F0020A504000018
:100BD000074B10B593F838403CB903F007F80220F2
:100BE000044900F09FF9204610BD4FF0FF30FBE7AD
:100BF000180F002081040000054B10B593F8384011
:100C00001CB902F0A1FF204610BD4FF0FF30FBE7FA
:100C1000180F0020054B10B593F838401CB90DF0A3
:100C20009BFE204610BD4FF0FF30FBE7180F002061
:100C3000054B10B593F838401CB90DF090FE2046D6
:100C400010BD4FF0FF30FBE7180F002008B5064B32
:100C500093F83830032B03D002F0C2FC002008BD0B
:100C60004FF0FF30FBE700BF180F002002680020A4
:100C7000014B1A60704700BF540F0020014B1B68E6
:100C8000184700BF540F0020024B1868003818BFE7
:100C900001207047540F0020F7B504462D4E071D64
:100CA0002C48376003F03AFF0228054606D129494F
:100CB00020460BF024FD284603B0F0BD042842D1A5
:100CC0003378092B0AD0262B1ED0314620460BF054
:100CD00092FDB0F5817F2DD3722112E005213E20D7
:100CE0000BF0E0FC0028F0D1F37801A932796846D6
:100CF00043EA0223ADF800300CF04AF90028CFD0C7
:100D000053210820FFF75EFD1A213E200BF0CAFC9C
:100D10000028DAD17368694601A8C3F30F23ADF840
:100D2000043011238DF806300CF046F90028B7D0B6
:100D30006521E6E70028B3D0A17820780BF0B2FC5B
:100D40000028B8D1ACE70828B5D1024920460BF0FD
:100D50000EFDB0E7580F0020074B4FF0FF3141F672
:100D6000FF72C3E9001205490022C1E900221F21D8
:100D7000C3E90212704700BF400000205C10002051
:100D80003F280CD801380B4BC0F3421200F01F0073
:100D900053F8223023FA00F000F001007047FF28DA
:100DA00006D04038044BC0F3421200F01F00EFE7BA
:100DB00001207047400000205C100020074B0146D6
:100DC000006849681A4603C240F48C221A6041F058
:100DD000107242F4FF625A60704700BF400000206A
:100DE0000246024B0068516803C370475C10002044
:100DF0000246024B0068516803C370474800002058
:100E0000FD28084B16BF00F1FF303F20C0B2420959
:100E100000F01F0003EB82039B6823FA00F000F050
:100E20000100704740000020014B1860704700BF70
:100E30006410002007B5FFF78FFF0DF0D5F8044BC5
:100E40001B6813B101909847019803B05DF804FB4B
:100E50006410002070B50C88C27CA6B2C4F30E04E6
:100E6000931C058804F118021D44825AADB21A443D
:100E700043882A44013AB2FBF5F202FB054292B2E2
:100E80009342044B8BBF3340B34313439BB20B805D
:100E900070BD00BF0080FFFF08B54B1E062B04D8B5
:100EA0004FF4D1711520FFF78DFC0A4B994202D9FE
:100EB00040F2A311F6E719B900B10160084608BD78
:100EC00028B103680022C3E901211A1D1A60043108
:100ED000F4E700BFFAFFFF7F10B5114B00EB4104B0
:100EE0001A786389B3FBF2F303FB0223013A1A4435
:100EF000B2F5706F027928BF00231A448378B2FBE1
:100F0000F3F0194403FB1020091AB1FBF3F003FBC3
:100F1000101313446FEA43436FEA5343638110BDD8
:100F200068100020024B03EB80004160704700BF57
:100F300068100020034B03EB80004068003818BFA6
:100F400001207047681000202DE9F04F10F0070ACB
:100F500085B0054604D040F261111720FFF732FC3E
:100F6000544F04464FF0010B07F14806B146B04616
:100F700057F8043B8DF80BA03BB101A898479DF8AA
:100F80000A30082B01D9E821E7E79DF80B1081BB57
:100F900005B13160B94506F10406E9D12DB300234E
:100FA000DFF814E111221E468EF8003058F82200B6
:100FB000013A60B190F804A08178BAF1FF0F64D1D2
:100FC0004FF000078E4207713CBFCEB20123511C87
:100FD000ECD10BB18EF80060112640F6FF6A58F88C
:100FE0002670002F63D1013EF9D2601B05B0BDE829
:100FF000F08F9DF80AC04A1DBCF1020FE64604EBD3
:10100000420438BF4FF0020E53000EF1FF3004448B
:10101000CEF100002040BDF808406444CCF1000C43
:10102000013C04EA0C04B4F5803F01D3F82194E7B5
:1010300075B1C31A336099701C8083F803B09DF8B2
:101040000C201A71019A4FEA124C1A81A3F806C0BB
:1010500004FB01049EE758F82C90B9F1000F06D06C
:1010600099F804B0D34504BF99F802904F440CF1AD
:10107000FF3CBCF1000FEEDA3944FF29A2D90BB1D5
:101080008EF8006040F2271167E794460027F0E7EA
:1010900007EB410309F101093846A3F80AA0FFF75D
:1010A0001BFF5FFA89F1BB788B42F1D89BE74FF0C9
:1010B0000009F6E76C10002068100020F8B54FF624
:1010C000FF7305460380184B03EB8101C86CB8B170
:1010D00086780379B3FBF6F206FB1233DBB21946CE
:1010E0000A1D00EB4202B2F902705488002F09DB9E
:1010F0000131B1FBF6F206FB1211C9B28B42EFD1FE
:101100000020F8BDFF29FBD0C4F30E03C4782B8068
:1011100024B94FF4D5711720FFF754FB5380BDE875
:10112000F8400CF044B900BF681000201D4B03EBE1
:10113000810170B5CC6C054644B3030404D54FF46B
:10114000DC711720FFF73EFB014620460CF012F938
:10115000FF28014604D02046BDE870400CF027B9B6
:10116000A078B5FBF0F300FB1353DBB219460A1D60
:1011700004EB4206B6F90260002E09DB0131B1FB37
:10118000F0F200FB1211C9B28B42F0D1002070BD09
:10119000FF29FBD08B4204EB42021CBF0023E3700B
:1011A0005580D8E768100020094B03EB810110B58A
:1011B000CC6C014620460CF0DDF8FF28014604D037
:1011C0002046BDE810400CF0F2B8002010BD00BF72
:1011D00068100020F8B5104B074603EB8101CC6C7A
:1011E000014620460CF0C6F8FF28054611D0E688D7
:1011F000238953EA064606D0014620460CF0D7F86C
:1012000001463846B04720462946FFF765FE0020D4
:10121000F8BD0520FCE700BF6810002038B50E4B74
:101220000446827903EB8203D86C08B9052038BDE7
:101230008278E1799142F9D24B1CE37100EB4103D2
:101240005D89B3F90A30002BF3DBA5800CF0AFF811
:1012500020600020EBE700BF6810002070B5044656
:1012600010F003000E4603D04F211820FFF7AAFA12
:10127000FFF712FE054624B1034831460460FFF72C
:101280000BFE284670BD00BFFC1000202DE9F3477F
:101290001C4C90461E46074622680D469DF8283095
:1012A0009DF82CA01AB961211820FFF78BFA1A4675
:1012B0000921404601930BF0CEFE52461FFA80F9F9
:1012C000092130460BF0C7FE80B209EB000120680F
:1012D0000CF025F8019B386018B9286002B0BDE811
:1012E000F08700EB0904414609222C6038680BF0B6
:1012F0006BFE534609223146286802B0BDE8F0472C
:101300000BF062BEFC10002070B50E4604460BF0D8
:10131000B5FE054630460BF0B1FE044B2A182146B7
:101320001868BDE870400CF01EB800BFFC1000202B
:10133000014B18680BF0E7BFFC1000201F2AF8B51E
:1013400004460ED89200033222F00303B3F5803F27
:101350002ED2194DB4B1A00711D05F210920FFF79B
:1013600031FAFF2A4FEA420304D9FF329A42A8BF5A
:101370001A46E8E77C2BB8BF7C231A46E3E72970BE
:101380006C602B8122F0030228230127120403FB47
:1013900001F06B680025120CEEB28E4200D3F8BD4E
:1013A00014B126181F705E60104401352833F3E72E
:1013B0004FF0FF30F3E700BF00110020144A002176
:1013C00038B553681478C8B2844203D8AB210920D9
:1013D000FFF7F8F91846013128330578002DF2D0CF
:1013E00000218170012412898161051D44709208D9
:1013F000C16100F12001446821F8022B994245F8AF
:10140000044B1444F8D100234361037038BD00BF7E
:10141000001100200A4B1B89B3F5FF7F4FEA9300B0
:1014200006D25A089B1A9BB2984238BF184670479A
:10143000B3F5EE6F01D8FF22F4E740F27263F3E7F1
:10144000001100202DE9F8434B7880460C4602F04D
:10145000040602F0FB07D3B1DFB12E4BD4F80490A1
:101460001D89B7BB0123AD084A46211D637004F1F5
:10147000280004F12003A761E76123F8025B98428A
:1014800041F8042B2A44F8D10023636101E0002FC6
:10149000E3D0FF23A370002E18BF0226A3191B7DE3
:1014A000032B03D1022F1CBF0136F6B2A319012270
:1014B0001A7506F10C02002304EB860624F812309C
:1014C0007268A3704046C8F80020A8F80430BDE850
:1014D000F883002114226170A0180FF0B9FEB5F551
:1014E000FF7F0FD26B08ED1AADB209EB0502C4F80D
:1014F00004902584A2606384C4F80C90A5842261C2
:10150000E384C6E7B5F5EE6F4FF0FF03EBD940F289
:101510007265EAE7001100202DE9F84305460C4604
:10152000F720052191460BF096FD061E22DB1DB922
:1015300006FB04F0BDE8F88315F0030703D09821FB
:101540001920FFF73FF9DFF83480C8F81050A5B232
:10155000A8F81460BBB29D42EAD9B8F814C04B4653
:10156000D8F810000522F72107FB0C0001370BF01B
:101570002BFDEFE74FF0FF30DCE700BF1411002038
:1015800007B5CDE900230B4603490246081D0CF0C0
:1015900045F803B05DF804FB2C11002013B5064C90
:1015A000CDE900230B46024604F1080104F10C00CA
:1015B0000CF034F802B010BD2C11002008B54B1E01
:1015C000032B03D923219020FFF7FCF8002801F119
:1015D000010114BF0C230523C9B203EB8101034BA6
:1015E000013121F00101197008BD00BF3C1100203C
:1015F000124B01224FF0FF3000211B685A60C3F8E4
:101600000803C3F80015C3F804250D4B1B685A6086
:1016100040F6FE72C3F808034020C3F80015094BDA
:101620000949C3F80825C1F88800BFF34F8FBFF3FD
:101630006F8FC1F88801C3F80825704794200020F7
:10164000902000200020085000E100E00A460648F3
:101650003A2302F8033BC368C1F8033003695360BF
:1016600043699360704700BF40110020024B5A8CC1
:1016700002435A845B6A184740110020014B002145
:101680005B6A18474011002010B5154C07F092FC1A
:1016900006F096FF208DFFF7F1FF237E63B122460F
:1016A000104904F1190052F80C3BE3606368536081
:1016B000A36893600DF09EFF0B4B228D93E803000F
:1016C00004F0D6F9236B188804F0FEF8A36B94F8A5
:1016D000341094F835009847002384F83C3010BD4E
:1016E000401100204D1600006C110020034B93F8B0
:1016F0003C300BB1FFF7C8BF704700BF401100205E
:1017000070B5224C0646636C256B236495F88C30CB
:1017100094F848000BB1031DD8B295F86D102EB99E
:10172000FF2803D195F86C308B4201D007F0DEFA28
:1017300095F88C3023B3E06C07F01EFD94F82C3044
:10174000E16C003B206C18BF012384F87030D5E9B0
:101750003A23C4E9182306F04DFE46B995F86D30DA
:10176000033B012B94BF2820002007F04BFD95F888
:101770006C10002007F0A6FD022384F83C3070BDF9
:10178000206C07F0F9FC06F01BFFE6E74011002093
:101790000138C0B2032808B504D940F267410620D9
:1017A000FFF710F8014B185C08BD00BF3053030071
:1017B00008B5094B93F83C20022A04D040F22D21B1
:1017C0002720FEF7FFFFDA7A42F00102DA72BDE865
:1017D0000840FFF759BF00BF4011002010B50E4C64
:1017E000A26F137803F00303032B04D1D378022BE9
:1017F00001D1002010BDE06F0BF0C8FC0028F9D12A
:10180000A36F1B7803F00303032BF2D002F052FC0A
:1018100080F00100C0B2EDE74011002038B51E4C49
:101820000546D4F88030984708B9012038BD94F8AF
:101830003430002BF9D194F82C301BB9012D03D092
:101840000020F3E7002DFBD194F88430DD06C3F3CC
:10185000001001D5FFF7C2FF636CD4F888201B7815
:10186000C3F300132AB9B4F88C2013B1B2FA82F38F
:101870005B0994F82C10628C39B1910705D5A36FE0
:10188000D878023818BF0120D0E7002ACDD100282F
:10189000D6D183F00100C9E7401100202DE9F043C3
:1018A000334C85B006460F4694F83C30256B012B2F
:1018B0005FFA83F804D040F29D412720FEF782FFB3
:1018C00095F87C3053B10021042085F87C10FFF797
:1018D000CDFE94F82C300BB185F87E80A16F0B788B
:1018E00003F00303032B05D195F8823013B90220CE
:1018F000FFF7BCFEA26F137803F00303032B02D0A3
:10190000537833BB012385F8823095F88C30D3B1FE
:1019100094F82C30216B003B94F8482091F86D002E
:1019200018BF01230392D5E93A8984F87030C4E9DD
:101930001889FFF72DFF00210346039A009102202A
:101940000C4906F0EFFC36B105B0BDE8F043FFF7F7
:101950009BBE0223D7E7002FF6D03046FFF75EFF8D
:101960000028F1D105B0BDE8F043FFF7C9BE00BFC4
:10197000401100209011002037B5724C0023256BD8
:101980008DF8053095F88C2094F848300AB104336E
:10199000DBB295F86C1028B9FF2B03D195F86D30A8
:1019A0008B4202D0FF2007F0A1F995F88230032B7B
:1019B00000F2B680DFE803F0023B94A794F88E3083
:1019C0006148ADF80630A5F85C3002F049FB80B103
:1019D000A16F4FF48070FFF749FE0121A36F85F8D6
:1019E0007D10DB781B2B1ED105F1100007F0AEF93E
:1019F00019E00DF105020DF10601E06F0BF066FB39
:101A0000A067A0B195F8C7308BB99DF805302BB908
:101A1000038001218370A06F0DF086FCBDF80610D5
:101A2000A06F0DF08EFD012384F88F3001E0474B4D
:101A3000A36795F88330A16FDB0003F008020B78F1
:101A400003F0F303134395F88420920002F004029C
:101A5000134323F010030B70FFF7C0FE0028A06FA4
:101A600014BF1023002302781343037095F88B30C2
:101A7000002B58D04378002B55D0E06C07F07CFB4E
:101A800094F82C30A06FB3FA83F35B0984F87030BC
:101A9000D5E93823C4E918230DF05BFC021EE16C84
:101AA00018BF0122A06F07F07FFD18B9A16FE06C8D
:101AB00006F0A0FCA06F0BF0E9FD95F86D10012079
:101AC00007F000FCA26F0123118884F8E030A4F82D
:101AD000841091781E4A84F83C30917003B030BD78
:101AE000B5F85C300DF105020DF10601E06FADF8BF
:101AF00006300BF0EBFAA067002894D140F2CD211C
:101B00002720FEF75FFE104802F0AAFA10B940F253
:101B1000D721F5E7A36FDB781B2B84D1012163E785
:101B200040F2E521ECE707F027FB06F049FDA06F46
:101B30000DF00FFC011EA06F18BF01210EF049FF30
:101B4000B8E700BF40110020B8110020D0110020DC
:101B5000C4110020064B10B593F83C2002F0FF049E
:101B600022B91C7603F07CFF204610BD0C24FBE755
:101B7000401100200A4B0B4A70B506460D461A600C
:101B8000FFF7E8FF18B1DE212720FEF71BFE064C09
:101B9000012104F190000DF0C7FB6664E56470BD9F
:101BA000C0000020B000002040110020024B0122A4
:101BB00083F8E120704700BF40110020F0B585B0E8
:101BC0009A4C02AE0A9F86E8030094F83C1001F09C
:101BD000FF0511B90AB103B127B940F26D112720F1
:101BE000FEF7F0FD96E8030004F12C0C84F8E150B8
:101BF00084F8345084F8E25084F8355084F8E0508A
:101C000084F88F5065842585C4F880306262A763AC
:101C10008CE80300256B07F0BBF806F0D1FC95F9C2
:101C2000740007F019F9A86A07F08AFA286A07F021
:101C300019F995F89C0007F03BF995F87630002BE0
:101C400000F0AB804D2006F0F1FF94F82C00002846
:101C500040F0A58095F86C20754B03EB8203596822
:101C60004FF47A7301F5FA71B1FBF3F16E3107F0BD
:101C70008DF9704B704E05F58077186807F066FA9D
:101C80006B69E367AB69C4F8E43005F1F0031868E9
:101C9000083353F8041C3246BB4203C21646F6D141
:101CA0005968D5F80001236B644A03C293F8862073
:101CB00093F86C00A2F12601012903D993F887104B
:101CC000262974D194F82C20002A6DD193F80212A1
:101CD0000BF0CCFC064605F13407314638460DF0D2
:101CE00045FD31460DF069F8B5F8403095F86D10B6
:101CF000984228BF184684F88E0038460DF0FCFC48
:101D000095F86D1095F88C700429B5F8486008BFF7
:101D100003210DF052F80FB9043080B2B04228BF51
:101D20003046C6B284F8E86002F0F4FF28B102F051
:101D3000F7FFB04238BF3046C6B294F82C7084F832
:101D40004860002F57D195F88B308BB1012395F85F
:101D50006C0084F87030D5E93823C4E91823FFF704
:101D600017FDFB22034634490420009706F0DAFAF7
:101D70000120FFF701FE002323606360A360B5F834
:101D8000803063802B88238095F89C3023712B6FE3
:101D90000BB101221A6005B0F0BD962053E795F80B
:101DA0006D20C421012062E793F89A1290E7213A4E
:101DB000012A0ED824290ED094F82C20B2B193F821
:101DC00026315A0710D413F0010181D103F002012A
:101DD0007EE724290AD194F82C203AB193F82621E1
:101DE00093F865301340ECE7042171E7032814BF32
:101DF000064604266FE795F88C3093B1012395F8D9
:101E00006D0084F87030D5E93A23C4E91823FFF750
:101E1000BFFC00220346084900920220324606F029
:101E200081FA0120FFF76CFCA5E700BF40110020FC
:101E300030530300C000002090110020A8110020A2
:101E400008B5114B93F83C201AB9BDE80840FFF7DC
:101E50001BBC93F82C2042B993F83C30012B12D0D4
:101E600040F20B212720FEF7ADFC93F83C20022A1C
:101E700002D040F20F21F5E71B6BD3F8D801BDE883
:101E8000084007F093B908BD40110020014B1876B7
:101E9000704700BF40110020014B93F8E0007047ED
:101EA00040110020044B93F88F201AB9188DC0F30D
:101EB000003070470120704740110020024B188D00
:101EC000C0F3C020704700BF40110020014B93F8C1
:101ED000E2007047401100202DE9F34182071E4DBA
:101EE00006460F462C6B22D5D5F8883023B940F230
:101EF0008E412720FEF766FCB5F88C201846296C29
:101F0000033291F8018009F0C3FE0DF1020201A92C
:101F10002864D5F8E4000BF0ECF901980BF0D3F944
:101F2000012238604146D5F8E4000BF079F9F30757
:101F30000ED5D4E93A32013342F10002C4E93A3213
:101F400094F88430012B0CBF0023012384F88430E3
:101F500002B0BDE8F08100BF401100202DE9FF472D
:101F6000B44C002380468946276BCDE9023394F8B0
:101F70003C30022B04D040F211512720FEF722FC06
:101F8000238D590606D44020FFF778FB238D43F0BC
:101F90004003238597F88C30B8F1000F00F0508192
:101FA000A3B106F01BFB88B9236C5A7872B11B7879
:101FB00097F88420C3F3C0039A4207D1012384F821
:101FC0003530FFF761FB04B0BDE8F087236C59782A
:101FD000A4F88C1009B3D4F8E4000BF0F8F8C4F8B6
:101FE0008800238D97F8832043F400732385236CA6
:101FF0001B78C3F380039A4200F0C280256B95F8EA
:102000008230002B40D0022B11D102A9E06F0BF0DF
:102010007FF828B940F20541AFE7C4F88810E0E73F
:10202000D5E93832013342F10002C5E938320021E6
:1020300094F82C3085F882103BB195F87E3023B1AE
:10204000102085F87E10FFF711FB95F87D309BB1CD
:10205000002685F87D6002F015F810B940F21C41A9
:102060008BE731460820FFF701FBD5E93832013311
:1020700042F10002C5E9383295F88330012B0CBFDC
:102080000023012385F88330238D4FF0000A43F4A9
:1020900000632385216C97F884200D78C5F3C00375
:1020A0009A426FD00025206C0BF0F0FA97F88B3035
:1020B000B3B194F82C3097F86C00B3FA83F35B0952
:1020C00084F87030D7E93823C4E91823FFF760FBA0
:1020D00000220346584900920420FB2206F022F910
:1020E000B9F1000F00F0CA80012607F01FF91DB1F9
:1020F00003A90220FFF7F0FEBAF1000F10D094F808
:102100002C3043B1B4F80720B4F805301343B7F8C6
:102110008020134304D0B4F809300133A4F8093007
:10212000B8F1000F00F0C480B4F805300133A4F812
:102130000530002384F8E230404803F0B3FB0298F6
:1021400030B10BF0C0F8216B0022027202F02AFDC0
:10215000039B33B1216B00221A720C22039802F008
:10216000EFFC002E7FF42DAF238D1B063FF52BAF28
:102170008020FFF783FA238D43F08003238522E735
:10218000C24687E705F00305266B032D14D0F5B989
:1021900096F88430013B18BF012386F88430236C05
:1021A0005B78002B3FF47FAFD6E93A32013342F13E
:1021B0000002C6E93A3276E7238D0120002543F478
:1021C000805386F87C002385FFF750FAE0E74D78CE
:1021D000002DDDD0238D96F88C5043F48053238559
:1021E00006F03AFD042894F8E83006D1002D14BF1B
:1021F0001B221F22934228BF1346226C52789A4218
:102200000BD8D4F88830002B3FF44CAF94F8E13071
:102210006BB12020FFF732FA44E794F83430012004
:1022200043F0100384F8343008F066F83AE7454686
:10223000AEE700BF40110020901100206C1100207B
:102240000BB106F0DFF994F8E230013384F8E230A4
:10225000238D43F48063238597F86D30033B012B76
:1022600005D80025012008F047F8AA461EE702F02D
:1022700051FD82460028F4D1054617E794F82C203A
:1022800094F8E2303AB1628C120704D5A26FD2788A
:10229000022A3FF429AF012B3FF626AF0120FFF7BA
:1022A000BDFA064600287FF41FAFFFF765FB1EE767
:1022B000B4F807300133A4F807303DE72DE9F04FBB
:1022C00004461E4600230D4690462DED028B8BB032
:1022D00090F86D7006930CF09EFB94F8C0310B2BB8
:1022E00004D940F2F2310620FEF76CFA7C4A32F84B
:1022F00013B094F887308344442B1FFA8BFB3DD0F6
:102300000E2B94F8862039D0443A5342534103931C
:1023100088F001030493B8F1000F58D194F8043207
:10232000032B54D1039B002B51D0B4F89832AB420D
:102330004DD1D4F80C322046B4F8DC2141F64B598B
:10234000C4F8F831E369C4F8FC31B4F852321344EC
:10235000C4F8003205F060FED4F8A03294F8AC2244
:102360004B458CBF4FF000094FF0010942B9E269BB
:1023700093421BD020880EF0E1FA17E00123C6E754
:1023800020880EF0D8FA18B940F232713020ABE74D
:10239000B4F8A832C1466386B4F8AA328381B4F88F
:1023A0009832A0F80E804381013B0382D4F89C321E
:1023B00084F87690E362B4F89A322386D4F8A03297
:1023C000E361D4F8A4326362022384F80432B4F8DF
:1023D00050A204F50873B4F88090A5EB0A0A08EE41
:1023E000103AA5EB0909DFF8FC800FFA8AF30FFA1F
:1023F00089F9002BB8BFD4E98E2394F804A2ACBFAE
:102400003246C4E992235FFA8AFABFBF0023012251
:1024100084F81B324B46BAF1030F00F2BF81DFE8AC
:102420001AF0040020016300400194F86D1094F844
:10243000D6010CF0E9FC0746E06A5946384407F03B
:10244000E5FD5946C4F80802E06907F0DFFD94F89D
:10245000763007A9002B18BF4FF0020A5044C4F889
:102460000C0208A806F06AFF079BD4E992010093CA
:10247000DDE908230EF0C4FD814620460BF02BF960
:10248000D4F8543294F86D00D4F82CA0069307F0D9
:1024900083F8069B00F52240D4F80812BB3BB1300C
:1024A0009A444FF47A73AAEB010A3031B0FBF3F08F
:1024B0005744238EA7EB090703EB41013F1A94F819
:1024C0006D0006970BF013F9D4F85422069BC8F858
:1024D00000009B1ACC2B66D840F2D24156E700BFD1
:1024E000485303002C120020E36A5946D4F8FC013B
:1024F000184407F08BFD5946C4F80802E06907F05C
:1025000085FD94F87630002B08BF4FF0000A504448
:10251000C4F80C0220460BF0DEF8B4F8DC31E76AB0
:10252000D4F8FCA1002B40F09780002E00F094809E
:1025300094F86D00574407F02FF800F52240D4F8C6
:1025400008324FF47A7BB130BB3FB0FBFBF9FF1A86
:1025500094F86D00D4F840321F44C31ED4E98E12A3
:10256000012BA7EB010774D907F016F800F2E7304A
:10257000B0FBFBFBA7EB09075F44D4F80812D4F8C3
:10258000F831D4F80022303194F86D0002FB0311C9
:10259000238E069703EB41010BF0A9F80123C8F83D
:1025A000000084F80432E7694FF00009D4F80C32D7
:1025B00004F13400A7F5A277069984F82092FF1A57
:1025C000D8F800309F4228BF1F46D4E99232C4F8A1
:1025D000D8715B1842F10002C4E98C320DF08AF820
:1025E0003844A4F85052C4F82402D4E98C23C4E936
:1025F000922304F045FF20B1D4F824321E33C4F8EE
:102600002432B4F8C81184F828924D1B2DB2002D45
:10261000C4BF022384F82832039B002B40F0C18002
:10262000002E40F0BF8094F80432002B00F0D780D9
:10263000E16918EE100AD4F80C32C91A0CF08CFBC0
:1026400080B2002800F0CB80169B03B118800120D7
:10265000D5E04FF03E0B8DE75744D4F80832FF1A0F
:102660008BE7D4F80C22E169D4F80072891AD4F807
:10267000F8014B43218E0693B4F8DC319944FB43B7
:102680009944D4F80832303300FB073394F86D00D6
:1026900002FB093301EB43010BF029F8C8F80000F5
:1026A00081E7E0695843069056B3B4F8DC1139BBB2
:1026B00084F81B12D4F80C1201FB130A94F886302C
:1026C000262BCDF818A003D094F88730262B09D1FB
:1026D000B4F89832EB1A1B0404D494F89B32002B04
:1026E00018BF1F46D2B3B4F8DC31BBBBD4E98E238C
:1026F000D4E9900182428B4108D340F2265145E64D
:1027000094F81B1200297FF44EAFD3E794F86D00C4
:10271000C31E012B3DD906F03FFF00F522404FF4C8
:102720007A7BB130B0FBFBF000F1AB0BD4F8403258
:1027300094F86D00103BD4E98E125A1AC31E012B77
:10274000924429D906F028FF4FF47A7300F2E7305B
:10275000B0FBF3F0AAEB0B0A50440690B4F8DC117E
:102760003846D4F80C324944594330314900059178
:102770000AF0BDFF244A94F8763005991060002BCA
:102780003FF411AF06ABE0690CF05BFB84F81B0271
:1027900009E74FF4897BC9E73E20DBE740F23E5171
:1027A000F4E5E6B1B4F8F01119B3B4F8F22194F8F5
:1027B000F431501CA4F8F22102FB033399420EDDE0
:1027C00094F828325BB10023A4F8F20184F828328F
:1027D00002F0ACFA00F00700013084F8F40118EEC2
:1027E000101A94F81C0208F005FC20B940F2875139
:1027F000CCE50A46DBE7049B84F8183200200BB0D6
:10280000BDEC028BBDE8F08F2C120020F0B5044621
:1028100085B018B9A8213020FDF7D4FF072900F2B0
:102820000681DFE811F00800450045004000040182
:10283000F000F800020190F8183253B3B0F81632E5
:10284000B0F8802093421ED1B0F8CC21D31AA0F862
:102850008020A0F8CE312046D4E98C23C4E98E2311
:1028600005F0FAFA94F8D331002B00F0CA800DF08D
:10287000E1FF704B1B68002B00F0C380204605B0C1
:10288000BDE8F04018479A1AA0F8CE21A4F880308D
:10289000E1E7B0F81432B0F880209B1AA0F8CE31EE
:1028A000B0F81432F2E705B0BDE8F04006F052BDD2
:1028B0000EF037FBD4E98E23801A61EB0301012867
:1028C00071F1000302DA40F21261A4E76FF0010334
:1028D00083424FF000038B4102DA40F213619AE722
:1028E000E5690DB1B0FBF5F594F88730442B14D0B1
:1028F00094F88620442A0AD00E2B08D0A2F1430671
:1029000072427241B4F81612B4F880303AB1B4F899
:1029100016320133A4F8163214E00122F2E72B44F8
:102920009BB2CA1A150454BF4B1C01339BB2A4F8C6
:10293000163294F819322BB9B4F81622B4F8CC3107
:102940009342E6D0B4F8523202AEB4F8805001336C
:10295000394FA4F85232B4F8BA301D44B4F8B83044
:10296000013DED1AADB23B685BB1B4F8161200221E
:102970002046013989B29847B4F816321844A4F8B1
:102980001602B4F816126B1A18041ED4002320463F
:1029900000961A46FFF792FC98B3012812D1B4F8BA
:1029A0001622B4F8C811BDF808301344521A1204A4
:1029B0009BB204D5EA1A12F4004F18BF0B46A4F8D4
:1029C0001632D0E740F26A6125E794F88A30304643
:1029D0000394002B0CBF3E23082384F8A930012365
:1029E0008DF8083002F0FCFC20460DF025FF002396
:1029F00094F81C0284F8043208F084FA202384F846
:102A00001C3205B0F0BD012007F076FC05B0BDE832
:102A1000F0400AF04BBE90F80432042B01D0CE21D6
:102A2000F9E6002380F80432EBE7D421F3E6D8215D
:102A3000F1E600BFC8000020D00000202DE9F041E1
:102A400004460E46154690F8383103F0FF071BB1D7
:102A50000C273846BDE8F08101464B4808F02CFAB7
:102A600020288046F4D05822394604F588700EF0AC
:102A7000EFFB84F81081C4F81461FF2384F8383127
:102A800036B102F06BF900F00700013086F8F4016E
:102A900002234FF00008A4F8483184F8408107F081
:102AA00009FB493086B220460DF0FFFC0146D8B341
:102AB0000BF0B1FF00F5CD6081B2284607F0A6FA11
:102AC0002844C4F844010EF02CFA30184FF00106E7
:102AD000A4F8268041F1000184F81861C4E954018A
:102AE00020460DF0F8FCD0B1A5F2AA4531462046AB
:102AF0000DF05DFC2D1AC4F81C514FF0FF326FF041
:102B00000043C4E9562304F5A07194F8100108F0BD
:102B100071FA70BB4FF4E5713020FDF753FE30467B
:102B2000AE3D0DF0ABFDE5E72046DFF860800DF02F
:102B30003EFCAE30C4F84401B8F8040048B1E08C63
:102B400038B102F00BF9B8F80430B0FBF3F202FB35
:102B5000130006440EF0E5F9361841F10001C4E90E
:102B60005461002DC9D0AE1941F10001C4E956618C
:102B7000C9E7D4E9542300212046C4E94A23C4E923
:102B80004C230DF0DEFC64E7BDD700002C120020C2
:102B9000F0B5002385B0CDE9003303238DF806306E
:102BA0006846FEF73BFB88B11D4E01230027B37139
:102BB0000223CDE902778DF80E3002A8FEF72EFB36
:102BC0000546A8B10023B37105B0F0BD00980AF026
:102BD000DCFEE5E790F81C0208F01CFD94F81C02EE
:102BE00084F8045208F08EF9202384F81C32DFE7C1
:102BF000029B002BE1D093F81C22202ADDD01888FC
:102C00004FF6FF739842DDD00221FEF7CDFA04465D
:102C10000028DFD14FF49A713020FDF7D3FD00BFBB
:102C20002C120020044B0022DA719A7142F21072C9
:102C30009A80FFF7ADBF00BF2C120020014BD87166
:102C4000704700BF2C12002008B506F00BF8044BAB
:102C50009A6882422ABF9879002080F0010008BD5E
:102C60002C120020F0B5044685B090F8D33103F063
:102C7000FF05002B6ED190F80432032B6AD10EF0C1
:102C800050F9D4E98E23801A61EB0301012871F118
:102C900000035FDB6FF00103834275EB010304DA8D
:102CA00040F2BB513020FDF78DFDE269B4F8803071
:102CB0000AB1B0FBF2F2013313449BB2A4F8143210
:102CC000B4F8CC31B4F814229B1A1BB2002B41DDAE
:102CD00094F81C0208F092FA00283BD0FF2384F8F5
:102CE0001932B4F8BA300DF10E07B4F880501A4E0C
:102CF0001D44B4F8B830013DED1AADB2336863B18C
:102D0000B4F8141200222046013989B29847B4F869
:102D10001432184480B2A4F81402B4F81432EB1A36
:102D20001B0417D4B4F8141200230122204689B2E0
:102D30000097FFF7C3FA68B1012808D1B4F814323C
:102D4000BDF80E2013449BB2A4F81432D6E740F22B
:102D50000261A7E705B0F0BDD00000202DE9FF41DA
:102D60000446062900F28280DFE801F004281525D8
:102D70002C317B003F4B9B7903F0FF025BB9009243
:102D80000123B0F8CC11FFF799FA38B14FF4DA61AA
:102D90003020FDF717FD042384F8043206F066F9AD
:102DA00007F084FF0023B4F88020A4F85232A4F87E
:102DB000162284F8193204B0BDE8F081032380F8AC
:102DC0000432F8E70DF0FBFDC4E99001F3E72A4B6C
:102DD0001B681BB10246D0E99001984794F86D300A
:102DE000E569033BDFF88C80012BD4F80C3294BFEB
:102DF000282200229D4202F5807288BFED1A98F8C1
:102E0000073098BF00251BB9636B9D4228BF1D4644
:102E1000D4F8D87104F1340003920CF06BFC074431
:102E2000022008F049FB0221EE1B26EAE6768642E4
:102E300028BF0646304608F085FB039A00B93744A0
:102E4000394620460CF0E2FCD4F8D831C8F8080026
:102E5000E069184408F002FB0028ACD140F27E3152
:102E600096E704B0BDE8F0410AF035BC40F2847149
:102E70008EE700BF2C120020C4000020012A70B58C
:102E800005460C46164615D0022A18D042BB05F05E
:102E9000E9FE3246014620460AF047FD2A4612491D
:102EA00094F8100107F018FA40B940F297713020F9
:102EB000FDF788FC05F0D6FEC5F8540270BDD0F8C9
:102EC0005412012220460AF030FD2A46064994F8A1
:102ED000100107F001FA0028F0D14FF4F561E6E7A0
:102EE00040F2AE71E3E700BF0D280000014B98806F
:102EF000704700BF2C120020343270B5054692B2E4
:102F00000C461E460AF089FA25B1034A556014742E
:102F10005674147070BD00BF50120020014B187021
:102F2000704700BF51000020014B5870704700BF30
:102F3000681200200138C0B2032808B504D94FF444
:102F400050710620FDF73EFC014B185C08BD00BF28
:102F5000D05303000138C0B2032808B504D94FF498
:102F600050710620FDF72EFC014B185C08BD00BF18
:102F7000525403000138C0B2032808B504D94FF4F5
:102F800050710620FDF71EFC014B185C08BD00BF08
:102F9000C85403000138C0B2032808B504D94FF45F
:102FA00050710620FDF70EFC014B185C08BD00BFF8
:102FB000A055030008B503460138032811D8481E60
:102FC00003280ED808480129417014BF0A210021A6
:102FD00083700271817210461946FEF7EFFA0020E5
:102FE00008BD6FF01500FBE786040020054A537A00
:102FF00020B143F0040300205372704703F0FB0339
:10300000F9E700BF860400202DE9F0410F4606399C
:1030100040F67A45BDF8188089B2BDF82460A9420F
:103020003ED8941FA4B2AC428CBF00240124254694
:10303000002837D11E49097969B15CB96FF4506035
:103040003918062906D86FF450615418062C8CBF25
:1030500000240124254605B3974226D803FB0666C3
:10306000B6F5FA7F21DCA8F10A0340F676409BB260
:1030700083421AD810460AF062FD42F21073704380
:1030800003FB08F8B8EB400F0FD9BDF81C50BDF892
:10309000200085428CBF002501252846BDE8F0812F
:1030A0000024C4E790F87510C6E70025F5E700BFD7
:1030B00030130020304BF0B5B0F860700C4611466C
:1030C0001A88B0F85E6085B097425D8828BF1746C1
:1030D000964228BF16461B2E2ED0B5F5A47F2DD0C4
:1030E00040F6480301AA9D4228BF1D460AF050FD44
:1030F000BDF80A309F4228BF1F46BDF80C30AB42D6
:10310000E78028BF2B462381BDF806309E4228BFAA
:103110001E46BDF808309D42668028BF1D46A5802A
:10312000FF232370E3881B3B9BB2E02B08D940F2BE
:1031300019613920FDF746FB1B2FCED105B0F0BD3C
:1031400063881B3B9BB2E02B02D940F21B61F0E786
:10315000238940F64812A3F5A4739BB2934202D987
:1031600040F21D61E5E7A388A3F5A4739BB29342E7
:10317000E4D940F21F61DCE7301300202DE9F34170
:10318000002304460E46174600F10A08CDE9003335
:103190006846FEF743F808B1002015E0009DA542FF
:1031A000F6D03046EB1C0AF0C4FC3946AA780BF086
:1031B0007CFD0028ECD005F10A036A7A4146607A6A
:1031C0000BF073FD0028E3D002B0BDE8F0810000F1
:1031D000054A134692F8202053F8211B11F8030BDF
:1031E000C0F380100BF061BD9C180020114BF7B5A7
:1031F0009C7E0646DD7E9F8B14B900F081FD04465F
:10320000A5B900F07DFD054614B9092003B0F0BD55
:103210000028FAD0304601A98DF804408DF80550F9
:10322000ADF806700BF0ECFD0020EFE7002CF1D1BB
:10323000EBE700BFF417002010B503210020FDF7D5
:10324000B3FF044670B90321FDF770FF044620B9AF
:1032500040F24D313920FDF7B5FA034B93F9601078
:103260000DF05FF8204610BD3013002038B50BF08C
:103270001BFD002501F068F8234C00F04FFD0CF019
:1032800091F901F0FBF902F07DFB01F01FFA01203A
:1032900000F008FD1D4B1E4A29465D831A601B2263
:1032A0009D839A80F9229D771D761A4B2283586858
:1032B000194A1B8922601422E06104F1240023844E
:1032C00084F86150A4F85450A576A580A5750DF03A
:1032D000BFFF012342F2107204F13A0084F8565005
:1032E00084F8243084F83930C4E90A220DF019FB3F
:1032F00004F144000DF03AFB0022002384F87050E2
:10330000C4E91A2338BD00BF30130020F417002091
:1033100003021B00525403001B004801044B41F6FA
:103320004C521B215A611974C3E90222FFF79EBF58
:10333000F417002073B5394D0446AB6840F8343FAC
:103340000AF05AFB064600F0D5FC2B7C10F0200F4B
:10335000E68784F83C30324B0EBF1B22AA8869886E
:103360001B6814BFA4F85E10A4F85E20A4F86020C7
:103370001BB194F97410208898472A490B79003BB7
:1033800018BF012384F87530274B1B6813B108312F
:103390002088984794F875302046002B41F64C530E
:1033A00018BF4FF47A73E361FFF720FF064648B178
:1033B00002212088FDF70EFF60B340F2D35139207F
:1033C000FDF700FA01236386184B1B6813B1014611
:1033D00020889847164B1B6813B100212088984716
:1033E000697804F11400AB886A8801910333297865
:1033F00003329BB2009192B204F11801FDF746FF2F
:10340000636913B94FF4BE61D9E7A3691BB940F2F0
:10341000F151D4E70926304602B070BDF417002000
:10342000D800002030130020EC000020E80000202D
:10343000E40000202DE9F34105460E460CF0B2FFF2
:10344000002800F0AF8028460DF02FF830B1B6F814
:103450000130013B7F2B01D9122404E028460DF0F6
:1034600028F820B90C24204602B0BDE8F081284697
:103470000AF00EFB0028F5D128460CF03CFF8046F0
:103480000028EFD1284603F02FF80028E4D042F2BC
:103490001073B6F80170F17828465F430CF0F1FF25
:1034A00004213078FDF780FE044606213078FDF7D0
:1034B0007BFE002C78D038B141F6F3113920FDF7AE
:1034C00081F9044690F8BD80414E3368002B6DD0E1
:1034D000403420460DF009FA002867D020460DF050
:1034E000F8F9002862D1B8F1000F08D0394B204616
:1034F0001B689847002859D041F60721DEE7364976
:103500004246336820464969984700284ED041F624
:103510000C21D3E728460CF0C8FF40B902210DF179
:103520000600FDF7CBFD064658B90D249BE728465B
:103530000CF0CDFF0028F1D1284B1B79002BEDD1E9
:103540008AE7002100F0F4FFBDF806302846314636
:1035500033800CF0E7FF28460CF0B9FFA8B9296AC0
:1035600028460CF0BEFF01463046FFF7E3FE044656
:1035700000287FF478AF3A4631462846FFF75EFAD6
:10358000044620B141F6382198E70121ECE7134BBE
:10359000DB6D002B3FF467AF024606F58D713046B8
:1035A000984760E742245EE700288AD128460CF05D
:1035B00074FF01460028ADD13A462846FFF73EFA8F
:1035C000044600283FF44FAF41F6152176E700BFCF
:1035D000E0000020DC000020F41700203013002061
:1035E00008B501F015F80AF064FB024B83F860009F
:1035F00008BD00BF30130020034B5A8802801B789F
:1036000083700020704700BFF41700207FB58378D7
:1036100006461A2B09D8042B05D9012202FA03F316
:10362000314A134205D112251AE0292B01D03B2B38
:10363000F9D13088B0F5706FF5D269460BF074FBA4
:1036400088B9019B93F8182102F0FF05C2B9B2783E
:1036500083F81921FF2283F8182168460BF07BFFBD
:10366000284604B070BD09213088FDF79DFD044651
:10367000002837D002A9B0F8AC010BF055FB08B117
:103680000C25EDE70821B4F8AE01FDF78DFD20B95A
:1036900040F628113920FDF795F803781BB994F806
:1036A000C831032BECD1039B93F82E21002AE7D1DC
:1036B00094F8F02102F0FF05002AE1D1B4F8B0211E
:1036C000A3F8302194F8B42183F83221027D83F8E5
:1036D0003321B27883F8342184F8F021FF2283F873
:1036E0002E21BDE70225BBE7200038040188A1F1A7
:1036F0001B039BB2E02B0CD8428844F24810A2F581
:10370000A4739BB2834204D8034B002019805A80D3
:1037100070471220704700BF30130020034B1A88F7
:103720005B88028043800020704700BF3013002078
:1037300038B50478427804F00103857804F0020477
:1037400052EA030101D1112038BDBCB9002DFAD0D5
:10375000002B08BF144601E00024254620460AF04D
:10376000B2FA0028EFD028460AF0ADFA0028EAD0D5
:10377000054B00209C76DD769883E5E7002BEBD1A6
:1037800014461D46EAE700BFF417002013B5008871
:1037900069460BF0C9FA18B10224204602B010BDE8
:1037A00068460AF0E8FA0028F6D0019890F82A3125
:1037B0000BB13A24F1E790F8D23003F0FF04002B6C
:1037C000F7D190F8C9309B0706D1FF2380F82A3142
:1037D00068460BF0C0FEE0E70249CA300BF00AFF72
:1037E000DBE700BFCDFD00002DE9FF41077804466F
:1037F0000E46EF2F04D91226304604B0BDE8F08102
:10380000B0F80130ADF80C309DF90C209DF80C306B
:10381000002AF0DB9DF80D209507ECD1D80660D486
:10382000990603F0030259D5002AE4D11D0703D5F8
:1038300003F06703012BDED16378180711D42179D7
:10384000E278E07942EA0122617942EA0142A17913
:1038500041EA0021207A41EA00418A42CBD81F2A5E
:10386000C9D9627A013A062AC5D8A27A032AC2D8EF
:1038700013F0040102D1023A012A03D8E27A012AA4
:10388000B9D811B9A27C032AB5D813F01001227D52
:1038900037D0012AAFD1237E012BACD8002940D0EC
:1038A0006378D90703D500F0BDF9002840D06378CC
:1038B000227D03F01803082B4AD1022A38D11FFABF
:1038C00087F803214046FDF76FFC0546002845D0E8
:1038D0000AF0DEF800284DD00C268DE7032AA5D18A
:1038E00089E713F0600F86D103F00F0203F007039E
:1038F000052BA1D0931E012B9ED9002A7FF47BAF0C
:103900009AE7022A04D103F06F03092B7FF473AF07
:10391000A37D013B022B3FF66EAFE37D0F2BBAD99F
:1039200069E700F0EDF9820707D4237D022B01D16E
:10393000112661E7A37D022BFAD000F0E1F94307DD
:10394000AED4237D032BF3D0A37D032BA8D1EFE7C7
:10395000022AB4D0237F002BB1D0E9E703214046EF
:10396000FDF7E4FB0546002843D0234B93F9601094
:103970000CF0D7FC002138460CF097FF28BB2846F6
:103980000CF088FD21463070E074284602F004FEF9
:10399000E37E0646002B3FF42FAF00287FF42CAFC8
:1039A0000246E96C6846FDF74DFD3246E86C0121A0
:1039B00009F088FDE96C68460422FDF743FD3246B4
:1039C0003146E86C09F07EFD16E740300CF08DFFC3
:1039D0000028D4D0637813F0330F7FF40CAFA77DA9
:1039E0002846296A0CF07DFDFFF7B4FA8742C6D05D
:1039F00072E7072600E700BF3013002030B50279D8
:103A00008BB00346042A5CD84488B4F5804F58D85C
:103A10002D4800211044ADF800108DF80810827C6C
:103A2000457B42F010028DF81D1042EA4502C57D2B
:103A3000007F42EA850242EAC00202F01F028DF8CE
:103A40000020BDF80020ADF809201A888DF80E403E
:103A5000240A8DF80B20120A8DF80D108DF8101025
:103A60008DF80C208DF80F405A7BD3F807008DF8A5
:103A700011205A79059002A88DF812209A798DF8B4
:103A80001320B3F80B209B7BADF818208DF81A306B
:103A90007F238DF81B3001238DF81C308DF81E30EC
:103AA0008DF81F108DF820108DF823108DF824103C
:103AB0008DF821108DF822106946FFF795FE0BB0A6
:103AC00030BD1220FBE700BF5254030002780346CA
:103AD00072B1427862B142881A2A09D982881A2AB8
:103AE00006D90068034A106000209B8893807047C5
:103AF00012207047F417002002680020014B9A60E2
:103B0000704700BFF41700200378A3F10A02112ABE
:103B10009BBF024A0020122013747047F417002044
:103B2000014B18760020704730130020014B587667
:103B30000020704730130020024B1B6803B1184768
:103B400011207047D400002008B5052000F0B6F819
:103B500004F0E4FA014B024ADA6508BD3013002094
:103B6000B530000008B502F0A1FCFFF75BF8024891
:103B7000BDE8084002F084BCA413002008B50BF097
:103B800091F8064800F58471FDF7F4FF022009F072
:103B900016FC0020BDE8084009F011BCA413002069
:103BA00008B50122064B83F80A2202F087FC03F0D5
:103BB00059FCFFF7E3FFBDE8084000F0A7BF00BFD6
:103BC000A413002010B5064C064904F503700AF052
:103BD000E2FE04F504700449BDE810400AF0DBBEC3
:103BE000A4130020F0000020F800002010B5094CBC
:103BF000094904F503700AF0CEFE04F50470074984
:103C00000AF0C9FE04F505700549BDE810400AF048
:103C1000C2BE00BFA4130020080100201001002034
:103C200000010020014B93F80A027047A413002002
:103C300038B5094C0D4600F045FFD4F80C02C4F825
:103C400004510AF0A0FEFFF769FB01F09FF8012381
:103C500084F8183238BD00BFA4130020014B93F83C
:103C600018027047A413002010B50D4CD4F81002B0
:103C70000AF089FED4F814020AF085FEFFF7F6FA7E
:103C8000202000F029F82F2000F026F8262000F050
:103C900023F8292000F020F8002384F8183210BD02
:103CA000A4130020014B83F819027047A4130020CD
:103CB000014B93F819027047A4130020C20805496C
:103CC000012300F0070003FA00F08B5C18438854CE
:103CD000704700BF58000020C208054900F00700E7
:103CE00001238340885C20EA03008854704700BFAA
:103CF00058000020014BD3E9000170475800002014
:103D0000054B1868C0F3C022C0F30020400040EA11
:103D1000820040F0010070475800002008B506F00E
:103D2000BFF90023074A32F82310814205D302EB82
:103D300083039B78044A137008BD01330C2BF2D126
:103D40000023F7E798540300BE150020024B1878B3
:103D5000072828BF07207047BE15002010B544680B
:103D6000238884F87B11A4F87C3194F86C00FFF769
:103D700001F984F87E0194F86D00FFF7FBF805491E
:103D800084F87F0104F5B9700BF034FC002384F84B
:103D9000243110BD1BEA0000406807490388A0F8E1
:103DA0006E3190F8643080F8703190F8653000F230
:103DB000651003730BF018BC31EA00002DE9F04FD9
:103DC0000C4685B0054608460BF0A4FB834620460A
:103DD0000BF098FB804620460BF098FB06462046E9
:103DE0000BF096FB6C68074694F8873094F886A031
:103DF000242B2FD104F18709BBF1000F49D006F025
:103E0000070210460AF063FE78B394F86C309842CB
:103E10002BD094F8241101290CBF94F8261194F8A2
:103E200068100A4235D0BAF1220F1ED094F86510FE
:103E30000A421AD1461EF6B2032E06D8013B5E494D
:103E4000DBB20E44032B30790BD940F21F21062040
:103E5000FCF7B8FCBAF1220F40F0A98004F1860902
:103E6000CAE70B441B79834213D808F007010846C0
:103E70000AF02DFEC0B394F86D30834234D094F82C
:103E80002431012B0CBF94F8273194F86930194282
:103E90002AD194F82431012B15D11E212846FFF791
:103EA0005DFFBAF1220F12D16B68182283F8092145
:103EB0000A2283F8862093F8C230002B43D140F2C7
:103EC000B3217E20C4E7002384F82431E9E70023EE
:103ED000284689F800300BF0E7FC1821284605B089
:103EE000BDE8F04F0BF00CBD03AB204600933B4602
:103EF0000AF0F7FD6C6880BB94F82431012B29D1BE
:103F0000B4F8803004F5267294F86C10B4F82801E7
:103F10000AF047FE0446C0B901462846FFF71EFFD7
:103F200089F800406B6803F18702914502D10022B5
:103F300083F887206B68002403F18702914533D111
:103F400028460BF0B1FC002032E06B68282283F891
:103F50008620E7E784F82401E4E7B4F8800047F618
:103F6000FD73A4F89872C0430744BFB29F4206D9BC
:103F70002823284684F8A93001F032FADAE794F8C9
:103F800087300E2B02D00B3B012B01D82A23F0E700
:103F90009DF80C3084F89A329DF80D3084F89B32ED
:103FA000262389F80030C5E783F8C240CBE702201A
:103FB00005B0BDE8F08F00BFC8540300064B0022D7
:103FC00083F850204FF6FF72A3F85220A3F8542034
:103FD000A3F85620704700BFC0150020064BB3F869
:103FE0005220824201BF002283F850204FF6FF7218
:103FF000A3F85220704700BFC0150020014BA3F862
:1040000054007047C0150020084B4FF6FF72B3F8FC
:104010005210914206D193F85020012A04D0036037
:10402000012070470023036000207047C015002066
:10403000074B93F85020012A1BBF0120B3F85420EE
:10404000002083F8500018BFA3F85220704700BF2B
:10405000C0150020014BA3F856007047C015002082
:10406000074AB2F85210B2F85630994205D192F888
:10407000503013B10260012070470020704700BF2C
:10408000C01500200A4BB3F85210B3F856209142E5
:1040900001D0002070474FF6FF72A3F8522093F82A
:1040A0005020002AF5D00022012083F850207047CC
:1040B000C0150020064BB3F85210B3F856209142B9
:1040C00003BF93F85000B0FA80F040090120704718
:1040D000C015002050B90A4A0120134603F8010B0D
:1040E0000868C2F801008A889A807047012805D1C3
:1040F000034B0A68D8719A608A889A81704700BF1A
:104100001816002048B90A4B187880B1D3F801205E
:10411000B3F805300A608B807047012806D1044B44
:10412000D87920B19A689B890A60F4E7002070472B
:104130001816002020B9054B187800F001007047D0
:1041400001280ABF014B0020D879F6E71816002095
:10415000F7B58B8800228DF80600ADF804300868AA
:104160000B4B8DF8072001461C7803F5AC73019DBD
:10417000D0B2844201D8082007E0D3E900760132AA
:104180000833AE4208BF8F42F2D103B0F0BD00BF8A
:1041900028160020084B0146002230B55C7803F554
:1041A0008173D0B2844201D8082004E013F8015B87
:1041B00001328D42F5D130BD28160020F0B5254DD5
:1041C00089B095F8984105F299116846224607F0A2
:1041D0005FFD214668460AF086FD0446B8B300EB51
:1041E000400102A8C9B2FCF749FD601E95F8A16123
:1041F0000124C0B295F8982105E0731CB3FBF2F1DD
:1042000002FB1133DEB206F120030DEB030111F8BE
:10421000203C002BF1D100EB400201F8204C06EBD2
:10422000460320322B446A4412F8187C83F8A271AA
:1042300012F8177C12F8162C83F8A37183F8A421C6
:104240000138AB19C0B283F89941FF28D2D109B027
:10425000F0BD00BF2816002070B5064688B00C4699
:10426000002A4FD02A4A92F8A131D01890F899111B
:1042700021B94FF480712820FCF7A4FA03EB430125
:104280000133114491F8A251E57091F8A35191F8CE
:10429000A41125716171002180F8991192F898118B
:1042A000B3FBF1F001FB103382F8A13192F8C23177
:1042B00023B9184902F5DD700BF099F965790D22E3
:1042C0000021684605F03F0545F0400565710CF09A
:1042D000BFFFE37804AA69468DF80F303046237992
:1042E0008DF80D508DF80E3004230CF0F5FE9DF87E
:1042F0001F3023709DF81E3063709DF81D30A37031
:1043000008B070BD03216018FCF7B8FCD6E700BF09
:1043100028160020BD410000044B5A78824286BF17
:104320001B1893F84A010020704700BF2816002090
:10433000044B5A78824286BF1B1893F84201002032
:10434000704700BF28160020064B00224FF4617111
:104350001A8083F8C32183F8C421A3F8C61183F817
:10436000C221704728160020014B83F8C401704712
:1043700028160020014BB3F8C6017047281600200C
:104380000A4B30B55C7884420ED9184490F802018B
:104390002B3003EBC004A5790D7053F8300010608A
:1043A0000120A388938030BD0020FCE72816002060
:1043B0000246074810B590F8C34124B1417821B1B5
:1043C000023003F0D7FE204610BD0C46FBE700BFCD
:1043D000281600202DE9F74F2F4C804600921A46F0
:1043E00063788946834254D9231893F8425185F063
:1043F0000105E9B193F84A31D3B945F00207013517
:10440000C2B9F9070BD5062104EB0810009201FB95
:104410000841823001F58571FFF71EFF009ABB0746
:1044200033D504EB081049460230FFF715FF2CE0A6
:104430002F46E5E794F8A1614FF0010A002DE0D086
:1044400004EB060B9BF8991199B9009B0192D3B12B
:1044500000F06CFC019A06EB46018BF899A14FEA3B
:10446000102C214481F8A201000C81F8A3C181F82D
:10447000A401013694F89811013DB6FBF1F001FB5F
:104480001066F6B2DAE747F00407384603B0BDE835
:10449000F08F0027F9E700BF28160020074B5A7855
:1044A000824209D91A1892F842212AB9062202FB3F
:1044B000003000F5857070470020704728160020F6
:1044C000064B5A78824281BF1B1893F83A01B0FA22
:1044D00080F0400998BF0020704700BF28160020D8
:1044E00030B5002442F21075A0F84040B0F84440C6
:1044F0004C43B4FBF2F4A0F84440541E05FB0343C4
:10450000B3FBF2F3A0F84230084BB3FBF2F30133F4
:10451000A0F84830838F05FB0344436B5943B4FB39
:10452000F2F4B1FBF2F28463426330BD005A6202DE
:1045300070B504460D4651BB4FF434720CF088FE42
:10454000012384F8DE5084F88E306FF0360384F84F
:10455000D930042384F8DA306FF03B0384F8DB3081
:104560006F2384F8DC306FF03C0384F8DD300623E1
:1045700084F8DF302B2384F8D830FE2384F80E3102
:104580007F2384F88530202384F81C3270BD0129F4
:1045900017D10023A0F8DC3180F8D3310D4BC2696C
:1045A00013441146B3FBF2F3C0F8B03040F6B83311
:1045B000A0F8B430C38C04F17800BDE87040FFF778
:1045C0008FBF0229E2D1B0F8A632D0F8A022C1698B
:1045D000F1E700BF7FC3C901034B80F874101B686B
:1045E0000BB100881847704718010020074B93F95A
:1045F00000301844142804DC10F17F0F03DB40B2B4
:104600007047142070476FF07E007047F01700204D
:10461000084B1B785B425BB21844142804DC10F191
:104620007F0F03DB40B27047142070476FF07E00AD
:10463000704700BFF01700207F2307B50DF107007A
:104640008DF8073004F032FE9DF9073068B10A4A50
:104650005078404240B21844142808DC10F17F0F13
:1046600007DB40B203B05DF804FB1846FAE71420FC
:10467000F8E76FF07E00F5E7F0170020024B00220C
:104680001A705A70704700BFF0170020054B1B7856
:1046900033B9054B1A681B7902600371012070471A
:1046A00000207047F217002060000020054BFF2219
:1046B0001A70054A016811600179117100221A709F
:1046C000704700BFF217002060000020064B07B5BE
:1046D00018681B79009068468DF80430FFF7E6FFF4
:1046E00003B05DF804FB00BF68E90300437893B1B1
:1046F000C2783C2A05D80A49885CC31A58425841F6
:10470000704702F11601C9B2042906D804490A44C7
:1047100012F8AD0CF1E7184670470120704700BF52
:10472000D05403003C2908B5C17003D80B4B5B5C27
:10473000437008BD01F11603DBB2042B04D8074B0C
:10474000194411F8AD3CF3E7FF2904D040F2594178
:104750002A20FCF737F80123EAE700BFD054030012
:104760002DE9FF478A4602A9154699460AF0DCFA68
:104770000646002840D1039F35B9012487F88D40B3
:10478000204604B0BDE8F087D7F81480294640469B
:1047900008F03BFC04460028F2D0194B5B88AB4282
:1047A0002CD3014601AA404608F087FD97F88D30CA
:1047B0000198002B0CBF514602210AF0B5FD01986B
:1047C0002A464946033007F063FA2946404608F076
:1047D00061FC044618B97D212B20FBF7F3FF9DF8FF
:1047E00008302BB102A80AF0B6FE039BA3F8CA61F9
:1047F000002387F88D30C3E70124C1E73446BFE7C3
:10480000F4170020024B987FC04300F0010070476E
:10481000F4170020034B987F80F00200C0F34000A3
:10482000704700BFF417002083230B70014B1B78E7
:10483000CB707047141800202DE9F7438769814633
:104840000D46384608F02BFD014618B9FC21102012
:10485000FBF7B8FF01AA384608F02FFD064610B94D
:104860004FF48071F3E7204B01991B6801F10308B5
:10487000B9F800007BB9B9F800300198AB8000238B
:10488000EE806B720AF058FD01280ED002280CD081
:104890004FF48D71DBE732464146984704460028C5
:1048A000E9D1204603B0BDE8F0832872384608F00D
:1048B0000CFD044610B940F22311C8E7FB2E02D9C3
:1048C0004FF49671C3E7286810B940F22D11BEE786
:1048D0003246414607F0DCF9384608F03EFC002835
:1048E000DFD140F23111B2E7200100202DE9F3477A
:1048F00006460D460527DFF86C81DFF86C912B69C1
:104900004BB11B7A1BB97E211020FBF75BFF2C6992
:1049100094B9002365E06C68237A012BF9D0EFF39A
:10492000108372B66A6812686A6003B962B62C6155
:10493000237A0BB9A421E7E794F808A05FFA8AFA72
:1049400027720AF1FF330B2B76D8DFE803F07206EB
:1049500010266F3C4E3C3C3C3C61636813B94FF4FD
:10496000D471D1E731462046984704231DE063689F
:1049700013B940F2B111C7E7314620469847ADF868
:104980000400C3B2C0F30720012859D002280CD17B
:1049900000222A61002BB2D023E0636813B940F2F1
:1049A000B911B1E7204698470023EFF3108272B6A1
:1049B000217A0529C8B24BD1002121722961002A30
:1049C000E8D162B6E6E7D9F80030002BEDD05246C8
:1049D000314660689847BAF10A0FC6D100232B61AF
:1049E0000423184602B0BDE8F08763680BB9B32111
:1049F0008AE70D2200243270012219885869B270AA
:104A0000A6F803107271B47108F0A7FB2C61E7E7F8
:104A1000606810B940F2E11176E7D8F8003031460D
:104A2000984760B100232B610223DAE74FF4F97154
:104A30006AE740F2F51167E74FF4FC7164E703465B
:104A400084F808A0002BCCD100287FF458AF60E791
:104A500010B940F2192157E7002A7FF450AF62B62F
:104A60004DE700BF1C0100202401002038B5134C85
:104A700014220021231D18460CF0EAFB03460125F1
:104A8000257404331422002104F11800C4E9013311
:104A90000CF0DEFB84F8245004F11C03084AC4E93E
:104AA00006330023E362236384F83430C4F83530DE
:104AB000C4F8393084F83D30136038BD1418002034
:104AC0002001002010B5084C2378FF2B04D04FF4B0
:104AD0009D711020FBF776FE06F0F2FF2070BDE816
:104AE0001040FFF7C3BF00BF6500002010B5034CA6
:104AF000207807F001F8FF23237010BD6500002027
:104B0000014B187807F008B865000020014B024AF5
:104B10001A6070471C0100203948000010B5064992
:104B20000446FFF7E3FE28B920460449BDE81040DB
:104B3000FFF7DCBE10BD00BF2C18002018180020A5
:104B4000134610B5027A22B140F295211020FBF7EE
:104B500039FE0A4601460248BDE810400AF024BD6D
:104B600018180020044890F834301BB903492C3041
:104B70000AF037BD704700BF141800209BF50000F5
:104B80000346064890F83E203AB190F83D2022B9FD
:104B9000034900F8353B0AF024BD70471418002083
:104BA000294800000A4610B5037A23B140F29D213E
:104BB0001020FBF707FE014607230248BDE810401E
:104BC0000AF0F2BC2C1800201346027A0AB10372D4
:104BD00070470A46014601480AF0E6BC1818002052
:104BE0001B234FF01B128384038482618382C26083
:104BF000038541B94FF4A473094AC3844384C26155
:104C0000C382026170474FF429634FF4A472C384D6
:104C1000438403F12963C282C3610361704700BF0B
:104C20004801480103460846B3F85820B3F84C1031
:104C3000B3F842C08A42F0B493F86D4028BF0A46E8
:104C4000B3F85060B3F85A10033CB3F84870B1425F
:104C5000E4B2B3F8465028BF3146012CA3F84220F5
:104C60008BBFB3F84A604FF429660C464FF42964B1
:104C70009742A3F8464038BF17468E4238BF0E46CB
:104C80009445A3F84870A3F84A6026D12C1B18BF9E
:104C90000124B3F85420B3F84E50B3F84060954265
:104CA000B3F8441028BF154693F86C20033A012A44
:104CB00015D9B3F85220B3F85670BA4228BF3A4615
:104CC000AE42A3F84050A3F8442002D1914200D153
:104CD00044B10549F0BC0AF08DBC0124D9E74FF47A
:104CE0002962EDE7F0BC7047FBF500000B8BA2F8E2
:104CF00009001046A2F80B304B8BA2F80D308B8BBD
:104D0000A2F80F30CB8B0249A2F811300AF06CBC2C
:104D10005DF60000014B1878704700BF5318002063
:104D2000014B1878704700BF66000020094AD2E99D
:104D30000003434083EAB01181EA43214FEAF34381
:104D400011605360044B58434FEAF06000EB800061
:104D5000704700BF54180020BB79379E094AD2E93A
:104D60000003434083EAB01181EA43214FEAF34351
:104D700011605360044B58434FEAF06000EB800031
:104D8000704700BF68000020BB79379E10B50A4C01
:104D900008210948FBF772FFD4E900231343F7D039
:104DA000064CFFF7DBFF2060FFF7D8FF2368606049
:104DB0000343F6D010BD00BF680000205418002047
:104DC000174B184A9A60184A5A60184A1A60184ACB
:104DD0009A62184ADA62184ADA60184A9A61184ADE
:104DE0001A63184A1A62184ADA64184A9A64184A06
:104DF0005A62184B184A9A60184A5A62184ADA627C
:104E0000184A1A61184A5A61184A9A61184A1A636C
:104E1000184A9A64184ADA64184A9A63704700BFBD
:104E20002801002053F9000089F9000001FA000070
:104E3000DBFB00004DFC00000955000063FC000096
:104E4000ED570000615600001DFD000045FD00000B
:104E5000BD5600003002002075F90000E1FC0000A2
:104E600085FC000029FC0000A9FC0000B1550000F1
:104E7000EBFD00008BFD000079FD0000C7FC000089
:104E8000044B054A5A65054B054A1A65054A5A6599
:104E9000704700BF2801002059FB000030020020AD
:104EA0003FFB000087FB0000054B064A9A65064A57
:104EB0001A66064B064A9A65064ADA65704700BFCD
:104EC00028010020DDEB0000BD3D00003002002085
:104ED000B5EA000085EC00003A2A73B505460C4699
:104EE0003ED83A2A45D8DFE812F049008D009700F5
:104EF000A300BB00A100A100CA00CC00D200A10009
:104F0000A100D700E200CC0044004400E600A1006C
:104F1000A1000101010108010F011B01440044002F
:104F20003A01570164016A0170017B017D017F0133
:104F300081018C019401C301C501440044009C011E
:104F400044004400B501AB01AD01AF01B101B701AF
:104F5000BB01B901BF01A1004400BD01B301C10102
:104F6000EB2A00F08B81FF2A00F08A81EA2A00F008
:104F7000838140F266415120FBF724FC416841F2F5
:104F80007070D1F80C32B1F80622A3F57A7585421B
:104F90000CD84FF47A70B3FBF0F303F550639BB277
:104FA0006420B2FBF0F20120D2B20DE040F2E24008
:104FB0006FF45065B3FBF0F39BB25D19062DEFD98A
:104FC000B2FBF0F20020D2B22271D1F80822B0B1C7
:104FD0006420E3711B0AB2FBF0F292B22372204606
:104FE0006271120AA271B1F8103263721B0AA372C5
:104FF000B1F8121202B0BDE870400AF0C5B940F233
:10500000E240E6E743682046D3F8F811013102B0E8
:10501000BDE870400AF0ECB902784368012A02D179
:1050200093F8103101E093F81931237102B070BD8B
:105030004568204605F510710AF0E9F905F5127189
:1050400020460AF0EEF905F5087120460AF0EFF95E
:10505000D5F80011204602B0BDE870400AF0F5B95D
:105060004168204601F5F3710AF0F5F96B682046B6
:10507000D3F8041102B0BDE870400AF0EEB94368FD
:10508000CEE7084602B0BDE8704000F069BB02B050
:10509000BDE8704000F074BB0E230B7159234B71B7
:1050A00000238B71E823CB7130230B72BEE743687A
:1050B00093F80A31B9E7037846687BB996F810315E
:1050C00063B196F80D1120460AF033FA96F80C11E8
:1050D000204602B0BDE870400AF02FBA96F80B11D6
:1050E00020460AF026FA96F80A11F1E741682046B0
:1050F00002B0BDE870400AF014BC436893F8262162
:10510000227193F8273109E0436893F82421012A9A
:10511000F4D093F868200A7193F86930637185E7D9
:10512000456895F8030209F04FFD014620460AF054
:10513000EBF995F80202C31E012B07D895F86C30E5
:10514000DA1E012A02D8984218BF002009F03CFD5F
:105150000146204602B0BDE870400AF0D1B945686A
:105160000023204601218DF804300AF0E9F82A7C5A
:1051700001A96B7C2046032A03F01F0308BF00220D
:1051800043EA82139DF8042002F0200213438DF8B5
:1051900004300AF0E2F849E7436811211888FCF767
:1051A00003F800F15B01204602B0BDE870400AF050
:1051B00083B9084602B0BDE870400BF0A2BB0846B8
:1051C00002B0BDE870400BF0A4BB334B1B68002B52
:1051D0003FF42CAF2946204602B0BDE87040184786
:1051E0002E4BF3E72E4BF1E72E4BEFE72E4B1B68D0
:1051F000002B3FF41BAF0246232002B0BDE87040F5
:105200001847294B1B68002B3FF410AF024624209F
:10521000F3E7254B1B68002B3FF408AF024625201F
:10522000EBE7436811211888FBF7BEFF00F17D0210
:1052300000F15B01204602B0BDE870400AF048B9B9
:105240001A4BC3E71A4BC1E71A4BBFE71A4BBDE72E
:105250001A4BBBE71A4BB9E71A4BB7E71A4BB5E73E
:105260001A4BB3E71A4BB1E71A4BAFE71A4BADE74E
:105270001A4BABE71A4BA9E71A4BA7E71A4BA5E75E
:105280004368204693F88F22D3F8901202B0BDE80D
:1052900070400AF065B800BF3C03002040030020C6
:1052A0003803002044030020880300204803002026
:1052B0004C03002054030020580300206803002002
:1052C0006C030020600300205C03002064030020C6
:1052D000500300207003002074030020840300208A
:1052E000800300207C030020780300203C2803D8A2
:1052F000064B53F82000704700F11603DBB2042B75
:1053000001D8AD38F4E70020704700BF2801002025
:105310003C2803D8064B53F82000704700F11603D1
:10532000DBB2042B01D8AD38F4E70020704700BF92
:105330003002002030F8023CF7B504460E467BB13F
:1053400000238DF804308DF8053000209DF80430DE
:1053500063F307009DF8053063F30F2003B0F0BD41
:105360001B4B30F8A05C1B680BB128389847194BD1
:105370001B680BB128469847174B1B680BB1284692
:1053800098470A230027A6F803503370B770637A52
:1053900054F8880C737107F0F2FE18B9B12163203C
:1053A000FBF710FA2846FEF719FE39462846FBF7A8
:1053B00011FF02212846FBF70DFF18B9074B1B68A8
:1053C00003B1984704238DF804300223BBE700BFE4
:1053D00090030020980300208C03002094030020F9
:1053E000F7B5456804464FF6FF776E690DF1020187
:1053F0000DF101023046ADF8027007F067FE01A919
:10540000304607F085FE40B1019807F05CFF616807
:1054100000220272FFF7C6FBE8E7044905F1A0008D
:1054200003B0BDE8F0400AF0DFB800BF355300001C
:10543000F0B5044685B00D46FF2600F8C16C10F8A3
:10544000C23CF3B1184F3B781BB148211F20FBF73A
:10545000B9F90C21381DFBF711FC3E70002304F84C
:10546000C13C09232A4602F8033BD4F80930C5F8A9
:105470000330D4F80D305360D4F81130936005B088
:10548000F0BD01A80C21FBF7F9FBA4F52C73039ADE
:10549000C3F8042101AB03CB44F8CA0C44F8C61C82
:1054A00004F8C26CDAE700BF5C18002010B5054CA8
:1054B00023782BB90C21201DFBF7E0FBFF23237081
:1054C00010BD00BF5C180020024690F8EE31BBB959
:1054D00090F8EF3103F0FF010BB100207047094B4A
:1054E00018780028F9D01970D9680433C2F804116B
:1054F00003CBC2F8E601C2F8EA11FF2382F8EE31CD
:10550000012070475C180020426870B592F887301F
:1055100004460D463BB1142B05D0123B0B2B94BF18
:105520000820012070BDD2F8143183BB92F8C83036
:1055300013B920460AF0A8F96168284601F5EF7111
:1055400009F07CFF2846666809F082FF6168C6F8AA
:10555000000128460B8801F2BB2121F8023C09F02A
:105560005BFF6168284601F2C32109F05DFF6368B3
:10557000002583F8EE5160680C4900F52C700AF0A4
:1055800030F863681622284683F88720CAE70C2281
:10559000032120460AF09BF963683222204683F8F3
:1055A00087200AF071F90020BCE700BF31540000E9
:1055B00038B54368044693F887201D2A04D04FF479
:1055C000DE711F20FBF7FEF8002293F8C8101D883B
:1055D00003F5D37083F8C72069B10B4983F8C8205D
:1055E000A3F8B05183F8AF2109F0FBFF63680022F4
:1055F00083F8872038BD012283F8AF11A3F8B0519A
:10560000024983F8B221EFE7C7FB0000B9FB0000B5
:105610000B46072210B503F8032B0446D0F80920E7
:10562000C1F80320D0F80D205A60B0F811201A817B
:10563000C27C9A7210F8483C7BB1084B1B681BB9BE
:1056400035211C20FBF7BEF8A0F5C072A0F58471CF
:1056500068389847002304F8483C10BD9C0300209C
:1056600038B50578446825B994F8873023B1012509
:1056700018E0A36FDB07FAD44A680E4B8968134021
:105680000D4AC4F8D830C3F307630A4043F0080357
:10569000C4F8DC2084F8DB300AF0F6F825B90423DE
:1056A00084F88730284638BDA36F002543F00103F6
:1056B000A367F7E72FC904F76FDB0006436870B5EF
:1056C00093F88620042A30D14C681A4A8E6822400A
:1056D0000578194CC3F8D820C2F30762344042F071
:1056E0000802C3F8DC4083F8DB20002283F8C220E4
:1056F00083F8862015B9426882F82B5193F88821E7
:1057000002F0FF049AB91A8803F5C07083F8894142
:10571000A3F88A214A68C3F88C218A680749C3F82C
:10572000902109F05EFF204670BD0124FBE70024B4
:10573000F9E700BF2FC904F76FDB00061156000020
:10574000406890F8883143B9038800F5C070034978
:1057500043811A23437209F044BF70471156000079
:1057600010B50446FEF7C6FA034A044B02400B404C
:105770006260A36010BD00BF2FC904F76FDB000695
:1057800037B50C464568FEF7B5FA084B084A0340A2
:105790000A4095F8D81000930B4001928DF8003024
:1057A0006B4603CB6060A16003B030BD2FC904F726
:1057B0006FDB0006DB0410B5144604D5037D13B17E
:1057C0000023436310BD436B013343630AF0EEFAD9
:1057D000D0E90D239A42F5D30023034943632046C1
:1057E000BDE8104009F006BF0FFD0000F8B54468A1
:1057F00005460E46077894F88630012B08D027B965
:1058000094F8873023B1012040E0A36F9A07FAD4BF
:1058100094F8C9309B0719D4304609F020FE84F86B
:10582000D300B6F80530A4F8D430B6F80730A4F8A1
:10583000D63094F8C93043F00202D80784F8C92062
:1058400010D5174904F1CA0009F0D4FE94F8C93004
:10585000D90712D4DFB994F8873043B150214020E2
:10586000FAF7B0FF94F82A31002BEAD1EEE70123D2
:1058700084F8873028460AF007F894F8863000202C
:10588000012B03D184F8860084F8C200F8BDA36F11
:105890009A0701D55521E2E743F00203A367E9E740
:1058A000CDFD000070B545680446FEF7C5FE054B0A
:1058B000014685F885001B681BB12046BDE8704095
:1058C000184770BDA4030020024B1B6803B11847A2
:1058D000704700BFA0030020F0B5204D00242B78B6
:1058E0001470CBB3013B6F68DBB21D1B012D0BDCC9
:1058F00007EBC40557F834606D688D4208BF8642D7
:1059000012D114700120F0BD1D196E10C5F34705AA
:1059100057F836C007EBC60E8445DEF804608E41AA
:105920002CBF2B462C46E0E7B04271EB050502D2B6
:1059300014700020E7E707EBC30457F8335064689E
:105940008C4208BF854201D11370DBE7A842A14118
:1059500028BF01331370ECE71846D4E77C18002009
:1059600010F0070208B503D063214820FAF72AFF98
:1059700018B1034B197258601A70C80008BD00BFF7
:105980007C180020014B00221A7070477C18002000
:10599000014B187A704700BF7C1800202DE9F743AF
:1059A0000AF04DFA0DF1070206460D46FFF794FF87
:1059B00098B910490A780B7A93420ED04C68134676
:1059C0006FF060479DF80700984209D304EBC003CD
:1059D000013201200A70C3E9006503B0BDE8F0831D
:1059E000D819013B04EBC000DBB2D0E90089C0E963
:1059F0000289E7E77C18002037B50AF020FA0DF19C
:105A00000702FFF769FF0446A0B10C4A9DF80700A2
:105A100013785568411C013B05EBC101DBB21370E3
:105A20001A1AD2B2D200834238BF002205EBC0005E
:105A30000BF0F6FB204603B030BD00BF7C18002001
:105A40000A460648822302F8033B0368C1F8033084
:105A50004368536083689360704700BF85180020D7
:105A60001622002101480BF0F3BB00BF851800206F
:105A700017B402AB03E903001C48437D8BB30B460C
:105A80009DF8001011BB93F86C10194A52F82120B0
:105A90004FF47A7102F2E732B2FBF1F2D3E97014FB
:105AA0006E3144F100045218198844F10004426038
:105AB00001808460B3F8803002220E490C3020F857
:105AC0000A3C03B05DF8044BFFF77EB8520608D5D8
:105AD0001A880280D3F840224260D3F844228260C0
:105AE000E8E703B05DF8044B704700BF851800205D
:105AF0004C550300415A00000F4B4FF47A720429B1
:105B000053F8213010B503F2E73300F1FF34B3FB53
:105B1000F2F34FEAC41409D003290AD002290CBFBA
:105B20006022F022234400FB023010BD4FF4D26209
:105B3000F8E740F2BE22F5E760550300264B1A68ED
:105B400010B5D2F80F300362537D117D1B0443EA78
:105B50000123D17C0B436FF450618362B2F819309A
:105B6000591806298DBF40F2E241A3F550634FF466
:105B70007A714B438EBF00214B430121C36180F8F2
:105B80007610937DD9B103EB830303EB83039B0072
:105B90000386B2F81730D9B164214B43C362B2F81F
:105BA0001B308384B2F81D30C38492F8243003F094
:105BB0001F025B0980F89A2080F8C03110BDC3EB4A
:105BC000431403EB840303EB83035B009BB2DFE727
:105BD00040F2E241E1E700BF9C18002038B5074DD4
:105BE000044600F16901286809F024FA94F8681065
:105BF0002868BDE8384009F02BBA00BF9C18002087
:105C0000D0F88030F7B50BB101221A604388DB076A
:105C100027D50023056A144E05F10A07CDE90033A4
:105C200002238DF80630FF2386F820306846FBF704
:105C3000F5FAB0B9009CA542F8D03B466A7A04F167
:105C40000A01607A09F031F80028EFD0A37886F8CD
:105C50002030D4F80330C6F82130044BB4F80720C4
:105C60009A8003B0F0BD00BF9C180020BD18002032
:105C700038B5084D044600F1690106232868002262
:105C800009F0F6FA94F868102868BDE8384009F081
:105C9000DFB900BF9C180020F8B504460E46134635
:105CA000807F6588324615F004050CBF294604F153
